:020000040000fa
:080000000002040000000000f2
:020000040000fa
:1000080038050000380500003805000038050000f4
:1000180038050000380500003805000038050000e4
:100028003805000046550000380500002e55000030
:1000380038050000380500003805000038050000c4
:1000480038050000380500003805000038050000b4
:1000580038050000380500003805000038050000a4
:100068003805000038050000380500003805000094
:100078003805000038050000380500003805000084
:100088003805000038050000380500003805000074
:1000980038050000380500009802000066030000db
:1000a8003805000038050000380500003805000054
:1000b8003805000038050000380500003805000044
:1000c8003805000038050000380500003805000034
:1000d8003805000038050000380500003805000024
:1000e8003805000038050000380500003805000014
:1000f8003805000038050000380500003805000004
:1001080038050000380500003805000038050000f3
:1001180038050000380500003805000038050000e3
:1001280038050000380500003805000038050000d3
:1001380038050000380500003805000038050000c3
:1001480038050000380500003805000038050000b3
:1001580038050000380500003805000038050000a3
:100168003805000038050000380500003805000093
:100178003805000038050000380500003805000083
:100188003805000038050000380500003805000073
:100198003805000038050000380500003805000063
:1001a8003805000038050000380500003805000053
:1001b8003805000038050000380500003805000043
:1001c8003805000038050000380500003805000033
:1001d8003805000038050000380500003805000023
:1001e8003805000038050000380500003805000013
:0801f800380500003805000085
:020000040000fa
:1002080038050000380500003805000038050000f2
:1002180038050000380500003805000038050000e2
:100228003805000046550000380500002e5500002e
:1002380038050000380500003805000038050000c2
:1002480038050000380500003805000038050000b2
:1002580038050000380500003805000038050000a2
:100268003805000038050000380500003805000092
:100278003805000038050000380500003805000082
:100288003805000038050000380500003805000072
:1002980038050000380500009802000066030000d9
:1002a8003805000038050000380500003805000052
:1002b8003805000038050000380500003805000042
:1002c8003805000038050000380500003805000032
:1002d8003805000038050000380500003805000022
:1002e8003805000038050000380500003805000012
:1002f8003805000038050000380500003805000002
:1003080038050000380500003805000038050000f1
:1003180038050000380500003805000038050000e1
:1003280038050000380500003805000038050000d1
:1003380038050000380500003805000038050000c1
:1003480038050000380500003805000038050000b1
:1003580038050000380500003805000038050000a1
:100368003805000038050000380500003805000091
:100378003805000038050000380500003805000081
:100388003805000038050000380500003805000071
:100398003805000038050000380500003805000061
:1003a8003805000038050000380500003805000051
:1003b8003805000038050000380500003805000041
:1003c8003805000038050000380500003805000031
:1003d8003805000038050000380500003805000021
:1003e8003805000038050000380500003805000011
:0803f800380500003805000083
:020000040000fa
:100400008f0621000e7f22000e01880000000000f0
:100410000c000700a0b32500010020001100070018
:10042000000020000000e000020032000000020096
:10043000000000005a540200000000000040da00f2
:100440000000fe004440a900406a20000000e000d7
:100450000300320000002000a00188004440a800f2
:100460000000060091018800800078000000eb0089
:1004700015003700e280400032a0b4009101ba00bc
:10048000e280400032a0b4009102ba00e280400055
:1004900032a0b4000002eb00472bde00f507b200eb
:1004a000602ce10004003a000059eb008301e900f0
:1004b000fdff3e00040037006128e100010032002a
:1004c0000082eb00040007001101ba000200e00006
:1004d000e8ff3a00000006003159ba008301e90044
:1004e0000c0032002159ba008301e90008003200f3
:1004f0000400e00003003a00e280400032a0b400b3
:10050000f5ff370011d9ba008301e900faff3a007c
:100510008100e800e180400032a0b4000000060045
:1005200000000000000000000000000000000000cb
:100530003600f800809fbe00829fbe00849fbe00f0
:10054000869fbe003400f80000002000a001880053
:100550000400fa00b01180002047980087c0a9006d
:1005600040828000e00f500009003a00ae40900049
:1005700040c2b30080cf50004c003a001000200071
:10058000408288000000eb0050828800470037005e
:1005900040828000e10f500035003a005182800017
:1005a00080828400808f5000200031000000eb002a
:1005b000000f78000c0037001e007800800040001b
:1005c000e00421000080400090007800508280000c
:1005d00000804000904078002e40900080cf500076
:1005e000060032001e0fe8009e0078006082800046
:1005f000808f5000f0ff390001003700000000003c
:100600009e00780060828000808f500004003100de
:10061000508280000000e8005082880023003700ec
:100620000000eb00408288002000370051828000eb
:1006300080828400808f50001c003900ae40900002
:10064000c0c2b30080cf500018003a000000eb0099
:100650005082880020002000408288002e409000b8
:100660008040780020802000c62b07000f00370054
:1006700040828000e20f50000c003a002e409000b3
:10068000ea4f500005003a00308280000000e80088
:10069000308288000000eb00408288002e409000ed
:1006a0008040780020802000b62b07000080fa00f0
:1006b0003400f9004f03be004f02be004f01be00e0
:1006c0004f00be003600f900004006003600f8007a
:1006d000809fbe00829fbe00849fbe00869fbe009a
:1006e0003400f80000002000a00188000000fa009b
:1006f00087e0a900a08020005b2b07000004a20077
:10070000e04f500005003200a08020007d2b070044
:100710000080fb00a0118800020037000000eb0001
:10072000004088000080fa003400f9004f03be004a
:100730004f02be004f01be004f00be003600f90060
:10074000004006000000fa0020802000462b070031
:100750000080fa00000006000200fa00000000001d
:100760000100370000000000208020003e2b070021
:10077000e04f5000fbff3a0020802000612b070073
:10078000004f78001e4078000080fa00000006004c
:100790000200fa00004f780000000000010037005e
:1007a000000000009e407800a0802000752b07000c
:1007b0000004a200e04f5000f9ff3a000040800022
:1007c000e00f500003003a001000200000408800b5
:1007d00087e0a8000080fa00000006000000fa0090
:1007e00097c0a90097e0a9000000eb000040880036
:1007f000208120000220200080007800208020003e
:10080000872b070020a12000022020008000780014
:10081000a0802000822b07000000eb0030828800bf
:100820000000eb00408288000000eb00508288004e
:1008300070002000c01188000000eb0080118800cb
:100840003062a80031e2a8000000eb00901188009f
:100850003342a80091058000f08f2f008080600057
:1008600000502000008070009005880097c0a8000c
:1008700097e0a8000080fa00000006000000fa00df
:100880000000eb00004088002081200002202000b2
:100890008000780020802000612b070020a120002c
:1008a0000220200080007800a08020005c2b070040
:1008b0000080fa00000006000000fa0097c0a900be
:1008c00097e0a9000000eb00801188000000eb0019
:1008d000901188000000eb00308288000000eb00df
:1008e000408288000000eb00508288000000eb008e
:1008f0000040880020812000022020008000780035
:1009000020802000462b070020a12000022020008c
:1009100080007800a0802000412b07000000eb0041
:10092000308288000000eb00408288000080fa00de
:10093000000006000000fa0097c0a90097e0a90097
:100940000000eb00004088002081200002202000f1
:100950008000780020802000312b070020a120009b
:100960000220200080007800a08020002c2b0700af
:100970000000eb00308288000000eb00408288001d
:100980000000eb00508288000000eb00901188000e
:100990000000eb008011880070012000c011880069
:1009a00031e2a8003342a80091058000f08f2f00ab
:1009b000008060009005880097c0a90097e0a8001b
:1009c0000080fa00000006000600fa00008fbe005a
:1009d0002207980097c0a90097e0a9000000eb004b
:1009e00000408800208120002e01900080007800c7
:1009f000208020000a2b070020a120002e0190005b
:100a000080007800a0802000052b07000000eb008c
:100a1000308288000000eb00408288000000eb007c
:100a2000508288000000eb00901188000000eb006d
:100a300080118800120020001e00be00012c07005b
:100a4000c01188003062a80031e2a8003342a8003b
:100a500091058000f08f2f000080600090058800d5
:100a600097c0a90097e0a8000080fa0000000600e7
:100a70000040da000000fe000200fa00000f7800db
:100a80008420a9001e0078000040780067406000c4
:100a900067406000674060000080fb006700600006
:100aa0004400dd0022058000f1f82f008100610084
:100ab00000807000200588009e007800688060003b
:100ac0004300de0000407800614060000080fb00d1
:100ad0006100600000004000a2048000d1ff2f00f0
:100ae0008100610000807000a00488000080fa008e
:100af000000006000200fa00000f78008460a900e0
:100b00001e00780000407800674060006740600089
:100b1000674060000080fb00670060004c00dd0063
:100b200022058000f1ff2800810061000080700034
:100b3000200588009e007800688060004300de0089
:100b400000407800614060000080fb0061006000b0
:100b50004300dd00a204800071ff2f0081006100ce
:100b600000807000a00488000080fa0000000600e9
:100b70000400fa00000f7800110798000000eb0055
:100b8000000888001e009000100888001e007800f1
:100b9000200888000080fa00000006000400fa0027
:100ba000000f7800110798001e007800000a8800e6
:100bb0001e009000100a88000080fa000000060065
:100bc000889fbe008a9fbe008c1f78009600070099
:100bd0009d00330003866c006450e1002e0032005b
:100be0006420e100330032006150e1002f00320048
:100bf0006120e1003100320085855500eb07b0002f
:100c00000900200008042000050037000804440003
:100c100089844c000a0031000603430087834b009f
:100c20000001530081815b00f8ff33000203be0026
:100c30000800a0000804440089844c00f6ff390035
:100c4000c639dd008301730001003200130020006b
:100c50008904d1000884d3000998a300050032005c
:100c60000800a7000300a0008904d1000884d30075
:100c70008b05e8008904d1000884d3000001eb0053
:100c80000281d2002d00070001f0a1000cf0a700a6
:100c900001f0a000750037006420e1007700320009
:100ca0000801be000200be00f7ff37006120e1002e
:100cb000720032006000b800f3ff3700000020002f
:100cc00001f82700f0ff37000001be0041000700d7
:100cd0000470a70003f0a10003f8a30013003a007a
:100ce0006509b10010003200090035006928e100f3
:100cf000020035000100280000000500000040004f
:100d0000818048008502e900fcff3a0000000600ef
:100d1000f88f4200050035008100d1000080d3002b
:100d20008502e800fcff3a00000006008000eb00ae
:100d3000000005006011b8009a0037008100200013
:100d4000618055000b003d000b00200061fe2f006c
:100d50000100e1001d003400828171006101640026
:100d60008904d1000884d3000000e800faff3a00ab
:100d70007100200061006400030070000200600048
:100d80000900320061044400e0844c000988a50099
:100d9000050032008b05e8006808e10002003a0017
:100da0008904d1000884d300f20f20000258e1002a
:100db00005003d00c75ddd00f907b20089807500c0
:100dc00008007800000006000bf827008b00780070
:100dd00000000500c70ade00f107b200f50fb200ff
:100de00008003200e1cf4200020032000170a00092
:100df00024000500810f7000010032000408050086
:100e000044000500810f700002003a001400050044
:100e10008502e9000000400081c04800fcff3b0063
:100e20000170a000240005000004be00e9ff0700d7
:100e30000003be000405be000200be00e5ff07007f
:100e4000844f7500000006000200be006450e100ff
:100e5000050036006420e100020036000968a300a6
:100e600001003a000800be000160a0004f067800b3
:100e70004f05be004f04be0000000600f0ff2f002b
:100e8000f1ff2700f9ff3700889fbe008a9fbe0050
:100e90008c1f7800e4ff0700ebff330003866c0033
:100ea0006450e100240032006420e1002700320099
:100eb0006150e100220032006120e1002100320097
:100ec0008b854200eb07b1000134b800003ab8004e
:100ed0000804420089844a00013ab8000030b80092
:100ee0008880400009014a000400330000004000ef
:100ef00081804800020149008b05e900c909dd0035
:100f0000830170000100320013002000c814de00cd
:100f10004814dd004709de001200b200c808de00f8
:100f20000884700085ff070001f0a1000cf0a70005
:100f300001f0a000cdff37006120e100cfff3200bb
:100f40000801be000200be00f7ff37006150e1005b
:100f5000fcff3a00c9ff37006022b80006022000fb
:100f60000000d0008180d2000482d2008582d200ad
:100f70000000a0000202520083825a0003003100e8
:100f80000202420083824a000000a1000603e90039
:100f9000f3ff3a0000000600efff07000400be0068
:100fa00000000600889fbe008a9fbe00008270007d
:100fb0000402710004827100260032000004be00a9
:100fc0000200be006011b8006b09200095022000ed
:100fd0000182cf000a0039000541b1000082cf0034
:100fe000070039000541b1000982cf000400390033
:100ff0000541b1000882cf00010039000541b10070
:1010000005425200120032000a003b00828171004a
:10101000610164008100d1000080d3008984d30085
:101020000884d3008b05e8000442e800f7ff3a008b
:10103000070037000804440089844c000000480081
:10104000818048008b05e9000442e900f9ff3a007d
:101050003aff07004f05be004f04be000000060027
:101060000102780080017800808f50000800310074
:1010700082804000808f50000500360082014000d1
:10108000c16178000201e900fdff3a00000006009e
:10109000e00f510003003200b45978000201e9006a
:1010a000fbff3700000006008000780002192000d6
:1010b000811f7800110009008280d80001017800aa
:1010c000cf00780010002000e00f51000a0032002d
:1010d000638160000000eb00800f510006003a00c1
:1010e00042062000110009008280d8008000fd0027
:1010f0000000ea004f00de000000060011bf2000e3
:101100000180b90012442f00000041004206200077
:10111000110009000280d8008000fd000100780065
:1011200000000600889fbe008a1f78000005780036
:101130004250de006104b8006150b800d2162000b1
:101140000300200085000700080040008980480057
:1011500002192000809fbe00110009000285d800fe
:10116000000178004f00be0002004000e08048000f
:1011700042062000809fbe00110009000285d800b1
:10118000000178004f00be0002005000e0805800cf
:101190004f0578004f04be0000000600889fbe0087
:1011a0008a9fbe000005be00020478000b02e80022
:1011b00004007800d1ff070080017800088041001a
:1011c0006104b800e18f55000b0036000a0078007a
:1011d000b5ff0700800078002200200003002000f7
:1011e000e08f5000020032001200200003002000b7
:1011f0000204540083845c000a00e900c9ff070070
:101200000000440081804c004f05be004f04be002a
:1012100000000600889fbe008a9fbe008c9fbe0013
:1012200000067800dc069000a3fb2f008d814100b2
:101230000080eb008080eb00e2102000828f5100e4
:1012400033003e00c0762000008046003c01900044
:10125000cc009000d1ff07000005be001200200066
:101260008000eb00207b2000ccff0700000455002d
:1012700081845d0072002000030020000800be0091
:101280002700070064024000e0824800720020004e
:10129000030020000400be00210007006006980043
:1012a000b0762000008046009eff07000a05e90096
:1012b0000000550070069800820120000300200005
:1012c0000800be00250007002c019000cf91de0031
:1012d0000000410081804900c2032000030020007b
:1012e0001e0007001c019000cf91de0000004100ad
:1012f00081804900c203200003002000170007007e
:101300001c017800cf91de0000004100818049007f
:101310004f06be004f05be004f04be000000060091
:10132000811f78000100e00002003d006000100015
:10133000e08018000300e00002003d0060011100a1
:10134000e081190014ff07004f00e00002003b009d
:1013500060001000e080180000000600020ab900da
:10136000001bb9000200b800810042008100430068
:041370000000060073
:020000040000fa
:1013740002040000030400001a20000053040000cb
:101384001e20000026200000202000002120000054
:10139400ac200000302000000904000039200000c7
:1013a4000a0400000c0400000b0400000f040000f9
:1013b4005204000018200000192000001c20000026
:1013c4001d20000022200000132000001420000033
:1013d4000000000011210000590400003a20000020
:1013e4005a0400005c0400005b0400005f04000079
:1013f400a00000000e0400005e04000008040000c9
:10140400a400000090040000a6000000a700000053
:1014140001040000a900000004040000ab00000067
:10142400ac000000ad000000ae00000007040000a6
:10143400b0000000b10000000604000056040000e3
:1014440091040000b5000000b6000000b7000000e1
:10145400510400001621000054040000bb000000e9
:10146400580400000504000055040000570400005f
:101474001004000011040000120400001304000012
:1014840014040000150400001604000017040000f2
:1014940018040000190400001a0400001b040000d2
:1014a4001c0400001d0400001e0400001f040000b2
:1014b4002004000021040000220400002304000092
:1014c4002404000025040000260400002704000072
:1014d40028040000290400002a0400002b04000052
:1014e4002c0400002d0400002e0400002f04000032
:1014f4003004000031040000320400003304000012
:1015040034040000350400003604000037040000f1
:1015140038040000390400003a0400003b040000d1
:101524003c0400003d0400003e0400003f040000b1
:101534004004000041040000420400004304000091
:101544004404000045040000460400004704000071
:1015540048040000490400004a0400004b04000051
:101564004c0400004d0400004e0400004f04000031
:1015740061000000620000006300000064000000dd
:1015840065000000660000006700000068000000bd
:10159400690000006a0000006b0000006c0000009d
:1015a4006d0000006e0000006f000000700000007d
:1015b400710000007200000073000000740000005d
:1015c400750000007600000077000000780000003d
:1015d400790000007a000000a1000000a2000000d1
:1015e400a3000000a5000000ac000000af00000054
:1015f400e0000000e1000000e2000000e300000061
:10160400e4000000e5000000e6000000e700000040
:10161400e8000000e9000000ea000000eb00000020
:10162400ec000000ed000000ee000000ef00000000
:10163400f0000000f1000000f2000000f3000000e0
:10164400f4000000f5000000f6000000f8000000bf
:10165400f9000000fa000000fb000000fc0000009c
:10166400fd000000fe000000ff000000010100007a
:10167400030100000501000007010000090100004a
:101684000b0100000d0100000f010000110100001a
:1016940013010000150100001701000019010000ea
:1016a4001b0100001d0100001f01000021010000ba
:1016b400230100002501000027010000290100008a
:1016c4002b0100002d0100002f010000310100005a
:1016d4003301000035010000370100003a01000029
:1016e4003c0100003e0100004001000042010000f6
:1016f4004401000046010000480100004b010000c5
:101704004d0100004f010000510100005301000091
:101714005501000057010000590100005b01000061
:101724005d0100005f010000610100006301000031
:101734006501000067010000690100006b01000001
:101744006d0100006f0100007101000073010000d1
:1017540075010000770100007a0100007c0100009f
:101764007e01000092010000b1030000b2030000fa
:10177400b3030000b4030000b5030000b603000087
:10178400b7030000b8030000b9030000ba03000067
:10179400bb030000bc030000bd030000be03000047
:1017a400bf030000c0030000c1030000c303000026
:1017b400c4030000c5030000c6030000c703000003
:1017c400c8030000c9030000ca030000300400007d
:1017d400310400003204000033040000340400002b
:1017e400350400003604000037040000380400000b
:1017f400390400003a0400003b0400003c040000eb
:101804003d0400003e0400003f04000040040000ca
:1018140041040000420400004304000044040000aa
:10182400450400004604000047040000480400008a
:10183400490400004a0400004b0400004c0400006a
:101844004d0400004e0400004f0400005104000049
:101854005204000053040000540400005504000026
:101864005604000057040000580400005904000006
:101874005a0400005b0400005c0400005e040000e5
:101884005f0400007021000071210000722100003b
:1018940073210000742100007521000076210000ee
:1018a4007721000078210000792100007a210000ce
:1018b4007b2100007c2100007d2100007e210000ae
:1018c4007f21000041ff000042ff000043ff0000b1
:1018d40044ff000045ff000046ff000047ff0000f2
:1018e40048ff000049ff00004aff00004bff0000d2
:1018f4004cff00004dff00004eff00004fff0000b2
:1019040050ff000051ff000052ff000053ff000091
:1019140054ff000055ff000056ff000057ff000071
:1019240058ff000059ff00005aff000000000000ab
:101934004100000042000000430000004400000099
:101944004500000046000000470000004800000079
:10195400490000004a0000004b0000004c00000059
:101964004d0000004e0000004f0000005000000039
:101974005100000052000000530000005400000019
:1019840055000000560000005700000058000000f9
:10199400590000005a00000021000000e0ff000090
:1019a400e1ff0000e5ff0000e2ff0000e3ff0000ac
:1019b400c0000000c1000000c2000000c30000001d
:1019c400c4000000c5000000c6000000c7000000fd
:1019d400c8000000c9000000ca000000cb000000dd
:1019e400cc000000cd000000ce000000cf000000bd
:1019f400d0000000d1000000d2000000d30000009d
:101a0400d4000000d5000000d6000000d80000007b
:101a1400d9000000da000000db000000dc00000058
:101a2400dd000000de00000078010000000100007d
:101a3400020100000401000006010000080100008a
:101a44000a0100000c0100000e010000100100005a
:101a5400120100001401000016010000180100002a
:101a64001a0100001c0100001e01000020010000fa
:101a740022010000240100002601000028010000ca
:101a84002a0100002c0100002e010000300100009a
:101a94003201000034010000360100003901000069
:101aa4003b0100003d0100003f0100004101000036
:101ab4004301000045010000470100004a01000005
:101ac4004c0100004e0100005001000052010000d2
:101ad4005401000056010000580100005a010000a2
:101ae4005c0100005e010000600100006201000072
:101af4006401000066010000680100006a01000042
:101b04006c0100006e010000700100007201000011
:101b14007401000076010000790100007b010000df
:101b24007d01000091010000910300009203000078
:101b34009303000094030000950300009603000043
:101b44009703000098030000990300009a03000023
:101b54009b0300009c0300009d0300009e03000003
:101b64009f030000a0030000a1030000a3030000e2
:101b7400a4030000a5030000a6030000a7030000bf
:101b8400a8030000a9030000aa0300001004000039
:101b940011040000120400001304000014040000e7
:101ba40015040000160400001704000018040000c7
:101bb400190400001a0400001b0400001c040000a7
:101bc4001d0400001e0400001f0400002004000087
:101bd4002104000022040000230400002404000067
:101be4002504000026040000270400002804000047
:101bf400290400002a0400002b0400002c04000027
:101c04002d0400002e0400002f0400000104000035
:101c140002040000030400000404000005040000a2
:101c24000604000007040000080400000904000082
:101c34000a0400000b0400000c0400000e04000061
:101c44000f040000602100006121000062210000f7
:101c5400632100006421000065210000662100006a
:101c64006721000068210000692100006a2100004a
:101c74006b2100006c2100006d2100006e2100002a
:101c84006f21000021ff000022ff000023ff00005d
:101c940024ff000025ff000026ff000027ff0000ae
:101ca40028ff000029ff00002aff00002bff00008e
:101cb4002cff00002dff00002eff00002fff00006e
:101cc40030ff000031ff000032ff000033ff00004e
:101cd40034ff000035ff000036ff000037ff00002e
:101ce40038ff000039ff00003aff00000000000048
:101cf4004f4b000000440000495300004b5f0000bc
:101d04004552000052000000494e0000545f00009c
:101d140045520000520000004e4f0000545f000086
:101d24005245000041440000590000004e4f00009d
:101d34005f460000494c0000450000004e4f000083
:101d44005f5000004154000048000000494e00006c
:101d5400564100004c490000445f00004e41000021
:101d64004d45000000440000454e00004945000078
:101d7400440000004558000049530000540000008e
:101d8400494e0000564100004c490000445f0000e9
:101d94004f4200004a450000435400000057000031
:101da40052490000544500005f500000524f0000ab
:101db400544500004354000045440000004900001d
:101dc4004e560000414c0000494400005f440000ae
:101dd4005249000056450000004e00004f540000d8
:101de4005f4500004e410000424c000045440000a5
:101df400004e00004f5f0000464900004c450000c3
:101e04005f53000059530000544500004d0000008a
:101e14004d4b0000465300005f410000424f00005c
:101e2400525400004544000000540000494d000095
:101e3400454f000055540000004c00004f43000083
:101e44004b450000440000004e4f0000545f00006a
:101e5400454e00004f550000474800005f43000016
:101e64004f52000045000000544f00004f5f000037
:101e74004d4100004e5900005f4f000050450000e6
:101e84004e5f0000464900004c450000530000002e
:101e94000024000046410000542d0000534400007b
:101ea4002055000041520000542000004c6f0000f7
:101eb400676700006572000020470000505300006f
:101ec4000a000000244e00006f760000203200005b
:101ed4003620000032300000313300002031000091
:101ee400323a0000313200003a340000360a000071
:101ef4000000000024460000462c0000665f00003d
:101f04006d6f0000756e0000742c000025730000d6
:101f14000a000000257500000a00000024470000a4
:101f240050530000257300000a0000008081000067
:101f34008282000084850000868700008889000072
:101f44008a8b00008c8d00008e8f00008091000031
:101f540092930000949500009697000098990000d1
:101f64008a9b00008c8d00008e8f0000a0a20000d0
:101f7400a2a30000a4a50000a6a70000a8a9000031
:101f8400aaab0000acad0000aeaf0000b0b10000e1
:101f9400b2b20000a5b50000b6b70000a8b90000b1
:101fa400aabb0000a3bd0000bdaf0000c0c100007b
:101fb400c2c30000c4c50000c6c70000c8c90000f1
:101fc400cacb0000cccd0000cecf0000d0d10000a1
:101fd400d2d30000d4d50000d6d70000d8d9000051
:101fe400dadb0000dcdd0000dedf0000c0c1000041
:101ff400c2c30000c4c50000c6c70000c8c90000b1
:10200400cacb0000cccd0000cecf0000d0d1000060
:10201400d2d30000d4d50000d6d70000d8d9000010
:10202400dadb0000dcdd0000dedf0000010300007d
:1020340005070000090e000010120000141600002d
:10204400181c00001e2200002a3a00003c3e00003a
:102054003f7c00007f0000002b2c00003b3d000073
:102064005b5d00000000000025300000386c0000bb
:1020740058200000002000002530000032580000e5
:10208400002000002530000034580000002000002b
:1020940025300000384c0000580000000500000006
:1020a400475000004747000041000000475000002f
:0820b400524d00004300000042
:020000040000fa
:1020bc000a00fa00200798003107980042079800a0
:1020cc002e009000000f78003e0090001007980042
:1020dc00080037001e009000104078009e00780029
:1020ec00804878001e0fe8001e0090000000e800f9
:1020fc00100798004e0090008000ea004e009000ff
:10210c00008070004f00de0000407800ce00900090
:10211c008100e90041079800e04f5000edff3a00c4
:10212c000080fa00000006000800fa001007980072
:10213c0021079800320798001e009000000f7800cd
:10214c00050037002e009000004078009e007800bb
:10215c00804878001e0fe8003e0090008000ea00e6
:10216c003e009000008070004f00de0000407800c0
:10217c00be0090008100e90031079800e04f50004c
:10218c00f0ff3a000080fa00000006000c00fa0094
:10219c003007980041079800520798003e009000c5
:1021ac00000f78004e009000100798000000eb0024
:1021bc0020079800000000005e0090008000ea00fc
:1021cc005e009000008070004f00de000040780040
:1021dc00de0090008100e90051079800e04f5000ac
:1021ec00130032001e007800104078008080fb0045
:1021fc001e009000104078000080fb000080500012
:10220c002007980010c0b300ae009000e08f500083
:10221c00010032000040eb001e0fe8009e00900011
:10222c008100e80011079800e04f5000e2ff3a00ef
:10223c002e0090000080fa00000006000400fa0056
:10224c00000f780011079800010037001e0fe800fe
:10225c001e00780010407800e04f5000060032005d
:10226c001e007800104078008000fb001e009000db
:10227c00808f5000f5ff3a001e0078001040780067
:10228c000000fb000080fa00000006000800fa00c5
:10229c00300798003e00900040409000e04f500006
:1022ac00360032003e00900050119000e01190007a
:1022bc00028fbe003e009000e102200080804000b2
:1022cc003e0090001040900014c0b3001e01be00f0
:1022dc003a1a0700e00f50000200320010002000f4
:1022ec0027003700be0090000040eb00c040980073
:1022fc003e00900080109000700890003e0110008d
:10230c00ae8118003e009000c0089000300890008c
:10231c00800f5100818f5900180031003e00900051
:10232c00304090000080fb00200798001000370020
:10233c003e009000c0089000300890001e0f400036
:10234c005e9748003e009000e10220008080400033
:10235c003e0090001040900014c0b3001e01be005f
:10236c00161a07002e0090000000e90020079800c4
:10237c002e009000e10f5000edff3e000000eb003e
:10238c000080fa00000006000600fa00000f78003a
:10239c0012079800230798001e0078005011900037
:1023ac00e01190001e009000ae009000800f5100d4
:1023bc00818f5900170032001e007800b3ff070010
:1023cc00e00f500002003200100020001200370015
:1023dc00e00220009e0040001e007800104090009b
:1023ec0014c0b3001e019000ae019000a0190700ac
:1023fc00e00f5000020032001000200006003700f1
:10240c001e0078001e019000ae0190005210980042
:10241c00631098000000eb000080fa00000006003a
:10242c000400fa00100798001e00900097ff0700a8
:10243c00000f78001e007800e00f5000aa003a0050
:10244c001e00900010407800e34f50009d003a00b1
:10245c001e00900050409000e14f500099003a004f
:10246c001e009000e002b000022020008000eb0073
:10247c002dff07001e009000c1222000808040002c
:10248c0050c5b300804878001e009000d122200077
:10249c0080804000a0cab300804878009e00900065
:1024ac0020c5b300e06898001e009000f1022000e7
:1024bc008080400020c5b300804878001e0090004a
:1024cc00010320008080400010c6b30080487800d3
:1024dc001e009000110320008080400010c4b30047
:1024ec00804878001e009000212120008080400050
:1024fc0020c7b300804878001e00900031212000d6
:10250c008080400020c7b300804878001e009000f7
:10251c00412120008080400010c4b3008048780026
:10252c001e009000512120008080400010c6b30096
:10253c00804878001e0090006221200000014100bc
:10254c001e00900080089000700090000040780001
:10255c00004978001e00900072212000000141000b
:10256c001e00900080089000700090000000780021
:10257c004800de0000407800004978001e00900002
:10258c0082212000000141001e0090008008900074
:10259c00700090004008de00010020000040780030
:1025ac00004978001e00900092212000000141009b
:1025bc001e00900080089000700090004808de001b
:1025cc000100200000407800004978001e009000b7
:1025dc00a2212000000141001e009000e0009000ac
:1025ec005000900000407800004978001e009000d8
:1025fc00b2212000000141001e009000e00090007c
:10260c0050009000000078004800de000040780088
:10261c00004978001e009000c221200000014100fa
:10262c001e009000e0009000500090004008de007a
:10263c000100200000407800004978001e00900046
:10264c00d2212000000141001e009000e00090000b
:10265c00500090004808de00010020000040780087
:10266c00004978001e009000e0089000500890008f
:10267c0061004000e08048001e019000501198005d
:10268c00611198001e009000e01090005010900016
:10269c001e019000e6022000020343001e01900080
:1026ac009242900014c0b3000001be008600780076
:1026bc0005407800411907009e0090000040eb0097
:1026cc00d04098001e009000104090000001eb00dc
:1026dc008040eb00a1190700e00f5000020032000f
:1026ec0010002000000f78001e0078000080fa0017
:1026fc00000006000600fa00000f78001207980090
:10270c00230798001e009000ae009000620050005d
:10271c00e080580010079800210798001e007800f0
:10272c00a00890001008900062015000e081580051
:10273c001e009000ae009000800f5100818f590058
:10274c0002003e006000b800140037001e00780044
:10275c00204090000080fb00010020001e01900032
:10276c000191b90002017800ae019000009ab90005
:10277c0084017800030141009e0190000018b8000c
:10278c0001014100820078001e017800c211900006
:10279c003211900000004100818049000080fa0055
:1027ac00000006000c00fa00300798004207980061
:1027bc00530798004e019000de019000100020009d
:1027cc0001002000800f5100818f59000800360055
:1027dc003e00900010099000a00990004e0090005f
:1027ec00de009000800f5100818f590003003e00e5
:1027fc001000200001002000cb0037003e009000ac
:10280c00104078000080fb00e20f500051003200b5
:10281c00e30f500074003200e10f5000c0003a008a
:10282c004e009000000f78001e0078000000d100d0
:10283c001e0f40003e009000700990008011900027
:10284c001e0078004900de0001002000020040005c
:10285c00838048000001be003e009000cafe0700c5
:10286c00e00f5000a7003a00f01f20001e0060008f
:10287c00be009000e002b000614078000080fb00d8
:10288c00100798001e0fe8003e00900070099000a1
:10289c00801190001e0078004900de00010020002d
:1028ac0002004000838048000001be003e00900002
:1028bc00b5fe0700e00f500094003a00f01f200016
:1028cc001e006000be009000e002b0006140780085
:1028dc000080fb004800dd009e009000008070002e
:1028ec00100798004e0090006100600000407800d6
:1028fc00e04f5000040032001e0090004400de0047
:10290c006101b800110037001e0090006101b80091
:10291c00f0ff200001002000020278000301780083
:10292c008001780001007800030262000000610061
:10293c0001002000c000dd00000020000001be00ee
:10294c006120b80000017100818171000200be009d
:10295c00750037003e0090007009900080119000c7
:10296c004e009000de009000480add004800de00ba
:10297c0000007200c808de0002004000838048009e
:10298c000001be003e0090007ffe0700e00f5000eb
:10299c0060003a003e009000e10220008080400080
:1029ac004e0090000000400000017800f01f200055
:1029bc000000610000804000200798002e0090006d
:1029cc000000e800104078000080fb00c800dd002b
:1029dc002e009000104078000080fb0000807000fa
:1029ec0001002000500037003e009000700990005c
:1029fc00801190004e009000de009000490add002e
:102a0c004700de0000007200c708de000200400034
:102a1c00838048000001be003e0090005afe070073
:102a2c00e00f50003d003a003e009000e102200013
:102a3c00808040004e0090004201dd00f01f20001d
:102a4c000000610000804000200798002e009000dc
:102a5c0063004000104078000080fb000100200063
:102a6c00c801dd00020020002e0090000080e8006c
:102a7c00104078000080fb0001002000c000dd0049
:102a8c000000200000017100818171002e00900077
:102a9c000000e800104078000080fb004800dd00da
:102aac000100200000017100818171002e00900056
:102abc00104078000080fb00010020000001710034
:102acc0081817100f0ff2f00f1ff200002027800dd
:102adc000301780080017800010078000302620095
:102aec00000061006101b800c011dd00020020008f
:102afc000200be006121b8000200700083807000eb
:102b0c00090037000000000005003700000000003d
:102b1c000300370000000000010037000000000037
:102b2c000080eb008080eb000080fa0000000600c3
:102b3c001000fa00300798004207980053079800dd
:102b4c0064079800750798004e019000de01900014
:102b5c001000200001002000800f5100818f5900cf
:102b6c00080036003e00900010099000a00990006b
:102b7c004e009000de009000800f5100818f5900b4
:102b8c0003003e0020002000000f780012013700e7
:102b9c003e009000104078000080fb00e20f5000d7
:102bac0070003200e30f500095003200e10f50002e
:102bbc00fc003a004e009000100798001e00900098
:102bcc000000d1009e00900000804000100798008b
:102bdc003e00900070099000801190001e00900043
:102bec004900de0001002000020040008380480004
:102bfc000001be003e009000e3fd0700000f7800ce
:102c0c001e007800e00f5000e9003a003e009000f2
:102c1c00e1022000808040001e019000f01f200087
:102c2c000000610000804000200798004e009000da
:102c3c006100600000407800e04f50000a00320054
:102c4c002e00900010407800ef4060006e00900065
:102c5c00004078000080fb004400dd00004078005c
:102c6c0000c07000020037006e0090000040780039
:102c7c00ae009000804878001e0090000000e80034
:102c8c0010079800be00900010c0b300c040980020
:102c9c003e00900070099000801190001e00900082
:102cac004900de0001002000020040008380480043
:102cbc000001be003e009000b3fd0700000f78003d
:102ccc001e007800e00f5000bb003a003e00900060
:102cdc00e1022000808040001e019000f01f2000c7
:102cec000000610000804000200798004e0090001a
:102cfc006100600000407800e04f50000800320096
:102d0c006e009000fe0090004c09dd004400de00d7
:102d1c0000007100c408de00004078000e0037008f
:102d2c002e009000104078008040780000cfb30057
:102d3c0000c160006e009000fe009000c809dd002c
:102d4c004800de0000807100c808de0000407800fa
:102d5c006f40600000407100ae0090008048780029
:102d6c009a0037003e00900070099000801190008e
:102d7c004e009000de009000480add004800de00a6
:102d8c0000007200c808de0002004000838048008a
:102d9c000001be003e0090007bfd0700000f780094
:102dac001e007800e00f500085003a003e009000b5
:102dbc00e1022000808040004e00900000004000a6
:102dcc0000017800f01f200000006100008040002e
:102ddc00200798006e00900000407800ae00900034
:102dec00804878002e0090008000e8006e00900073
:102dfc004800de00004078008048780073003700ff
:102e0c003e00900070099000801190004e009000e0
:102e1c00de009000490add004700de000000720071
:102e2c00c708de0002004000838048000001be009d
:102e3c003e00900054fd0700000f78001e00780043
:102e4c00e00f500060003a003e009000e1022000cc
:102e5c00808040004e0090004201dd00f01f2000f9
:102e6c000000610000804000200798002e009000b8
:102e7c0063004000104078000080fb00010020003f
:102e8c00c801dd00020020002e0090000080e80048
:102e9c00104078000080fb0001002000c000dd0025
:102eac000000200000017100818171002e00900053
:102ebc000000e800104078000080fb004800dd00b6
:102ecc000100200000017100818171002e00900032
:102edc00104078000080fb00010020000001710010
:102eec00818171000000200001002f000202780097
:102efc000301780080017800010078000302620071
:102f0c000000610001002000c000dd000000200076
:102f1c000001be006120b8000001710081817100c8
:102f2c006e009000fe009000020070008380700024
:102f3c0060079800710798006e00900000407800c0
:102f4c00ae009000804878002e0090008000e800d1
:102f5c006e0090004800de00004078008048780049
:102f6c002e0090000081e8006e009000fe009000a2
:102f7c004008de0001002000004078000049780085
:102f8c002e009000630140006e009000fe00900047
:102f9c004808de000100200000407800004978005d
:102fac000a00370020002000000f780007003700cf
:102fbc00000000000500370000000000030037008f
:102fcc00000000000100370000000000be0090006f
:102fdc0010c0b300c04098001e0078000080fa00ba
:102fec00000006000c00fa00300798004207980019
:102ffc00530798004e019000de0190001000200055
:10300c0001002000800f5100818f5900080036000c
:10301c003e00900010099000a00990004e00900016
:10302c00de009000800f5100818f590003003e009c
:10303c0020002000000f7800500037000000eb004b
:10304c00000f7800410037004e019000de01900027
:10305c003e009000d3fd0700100798002107980050
:10306c001e009000ae009000e00f5000e08f580062
:10307c003f0032001e019000ae01900010002000b5
:10308c0001002000800f5100818f590003003a008d
:10309c0020002000000f7800380037001e0190003f
:1030ac00ae0190000080eb008080eb00800f51009f
:1030bc00818f590003003a0010002000000f7800a7
:1030cc002e0037006022b8004e019000de01900007
:1030dc003e00900096fe0700000f78001e0078005e
:1030ec00e00f500024003a003e0090007001900068
:1030fc00800990000080eb008080eb00800f510075
:10310c00818f59000d0032003e0090008008900025
:10311c007000900061004000e08048003e0190008b
:10312c0070019800010998003e00900050409000fa
:10313c000004a000be009000d04098001e0090003b
:10314c00ae00900040079800510798003e00900098
:10315c0010099000a00990004e009000de00900035
:10316c00800f5100818f5900b7ff3e0003003700dc
:10317c000000000001003700000000001e00780075
:10318c000080fa00000006001400fa007007980096
:10319c00020f9800130f98000e0890009e089000e4
:1031ac00e00f5000e08f580017003a007e009000ae
:1031bc0050019000e001900022079800330798001e
:1031cc002e009000be009000e00f5000e08f5800e1
:1031dc00080032007e00900010099000a0099000b9
:1031ec002e009000be009000800f5100818f59007e
:1031fc0024003e0010002000010020002007980051
:10320c00310798001f0037000e0990009e099000ae
:10321c007e00900063fd070050079800610798003e
:10322c005e019000ee0190001000200001002000d3
:10323c00800f5100818f590003003e0010002000c8
:10324c0001002000880037007e00900010099000db
:10325c00a00990005e009000ee009000800f5100dd
:10326c00818f5900030036005e009000ee00900044
:10327c007d0037000e0890009e08900020079800f3
:10328c00310798002e019000be019000028fbe0005
:10329c000100370000000000100020000100200099
:1032ac001e0f40005e9748007e009000a008900022
:1032bc0010089000be0f5000ae8f58000b003e005f
:1032cc002000200001002000008fbe002e00900086
:1032dc00be0090001e01be00800f5100818f59006e
:1032ec00020036006000b8005f0037001e01be000f
:1032fc007e0090002bfd0700500798006107980096
:10330c005e009000ee009000e00f5000e08f58003f
:10331c000a003a00f4ff2f00f5ff20001e01be004a
:10332c007e00900002fe0700400798004e009000bf
:10333c00e00f50001a003200240037005e019000ac
:10334c00ee0190000080eb008080eb00800f5100bc
:10335c00818f5900070032005e019000ee01900051
:10336c001000200001002000800f5100818f5900b7
:10337c0003003a005e009000ee0090003a00370027
:10338c002e009000be0090001e01be00800f510068
:10339c00818f5900bfff3a006000b800320037003f
:1033ac000e0890009e089000e00f5000e08f58002f
:1033bc00060032001e02be000e0990009e0990000d
:1033cc007e009000dafd0700400798004e00900048
:1033dc00e00f50001a003a007e0090001e01be0063
:1033ec0052009800630098007e00900070019000dd
:1033fc00800990000080eb008080eb00800f510072
:10340c00818f5900170032007e00900080089000d8
:10341c007000900061005000e08058007e01900028
:10342c0070019800010998007e00900050409000b7
:10343c000004a000fe009000d04098000900370066
:10344c004e009000e10f500003003a000080eb00aa
:10345c008080eb00020037001000200001002000eb
:10346c00008fbe001e00be000080fa0000000600a7
:10347c000a00fa0030079800410798003e009000bf
:10348c00ce009000210098003e009000300190008a
:10349c00c0019000028fbe001e01be001000200073
:1034ac0001002000800f5100818f5900070032006d
:1034bc003e00900010007800a008900010089000ca
:1034cc00be0f5000ae8f580002003e0020002000be
:1034dc00720037001e00be00e00f5000e08f580055
:1034ec000a003a003e00900010007800104078006e
:1034fc00e34f500005003a003e00900010007800a9
:10350c0010119000a0119000028fbe001e00be0092
:10351c00e00f5000e08f580019003a003e00900078
:10352c001e01be0052009800630098003e009000ff
:10353c0010007800c00090004e009000808f50006a
:10354c0002003e0020002000540037003e00900096
:10355c001000780010119000a01190004e00900007
:10356c004400de000100200002004000838048007f
:10357c003e01900070019800010998003c00370052
:10358c003e00900010007800204090000080fb006e
:10359c004400dd0020079800200037003e0090001a
:1035ac00100078001e01be007efc0700008fbe00dc
:1035bc001e01be000080eb008080eb00800f5100ec
:1035cc00818f590002003a001000200033003700b0
:1035dc001e01be001000200001002000800f5100d1
:1035ec00818f5900070036003e00900010007800d3
:1035fc00a008900010089000be0f5000ae8f58002d
:10360c0002003e002000200024003700ce00900075
:10361c002e0090000080500040079800ce009000d3
:10362c002e009000808f5000dcff31003e00900097
:10363c001e01be0052009800630098003e009000ee
:10364c00100078001e01be002afc07000001be001d
:10365c004e0090004400de000100200002004000fb
:10366c00838048003e019000700198000109980089
:10367c003e00900010007800e102200080804000a5
:10368c004e0090006f0060004500dd00808040001f
:10369c003e009000110898000000eb000080fa003a
:1036ac00000006000c00fa00881f78004007980004
:1036bc00510798004e009000200090000000e80098
:1036cc00300798003e009000e00f500006003200da
:1036dc004e0090008008900070009000e00f5000a9
:1036ec00e08f580002003a0040002000c200370072
:1036fc003e0090006f006000e00f5000b0003a00f8
:10370c004e00900080089000700090006100400016
:10371c00e08048004e01900070019800010998006b
:10372c004e009000e000900050009000e00f500020
:10373c00e08f580008003a004e009000100078000e
:10374c00c00090003e009000808f50009c003e0016
:10375c0040002000a80037003e009000c400de00ae
:10376c004e00900010007800204090000080fb007c
:10377c000000e90000806000e00f500090003a006b
:10378c004e009000e0009000500090004e01900020
:10379c00120278000001be000400780001fc070052
:1037ac00008fbe001e01be00100020000100200092
:1037bc00800f5100818f590002003e002000200034
:1037cc008d0037001e01be000080eb008080eb00f6
:1037dc00800f5100818f590002003a001000200028
:1037ec00850037004e00900010007800a008900073
:1037fc0010089000be0f5000ae8f580065003e00c0
:10380c005e009000e00f500002003a0040002000e3
:10381c00790037004e009000e000900050009000be
:10382c004e019000120278000001be0004007800e6
:10383c0055fe0700008fbe001e00be00e00f5000ba
:10384c00e08f580002003a00700020006a00370038
:10385c001e01be001000200001002000800f51004e
:10386c00818f590002003a002000200062003700ce
:10387c001e01be000080eb008080eb00800f510029
:10388c00818f590002003a00100020005a003700c6
:10389c004e009000100078007cfa0700e00f5000fa
:1038ac000200320010002000530037004e00900040
:1038bc0010007800e002b000022020008000eb0035
:1038cc0019fa07004e009000100478004e0090008a
:1038dc00100078001e01be0086fb070050149800f3
:1038ec00611498000040eb00404798001600370028
:1038fc004e0090009000780010c0b300c0409800bb
:10390c004e0090001000780060fa0700e00f5000a5
:10391c000200320010002000370037004e009000eb
:10392c001001780052109000e210900061004000ed
:10393c00e080480050119800611198004e409000b2
:10394c000040e800404798004e00900010007800be
:10395c00a04090004e40900080cf5000e4ff3e000d
:10396c004e009000100278004e009000100078007d
:10397c0050119000e01190004e4090000080fb0030
:10398c000100200000005100818059005012980065
:10399c00611298004e0090001e01be00520098006b
:1039ac00630098004e009000100078001e01be00cd
:1039bc0050fb07004e01900070019800010998001f
:1039cc004e009000be019000230098004e00900025
:1039dc0010007800e1022000808040003e00900042
:1039ec006f0060004500dd00808040004e009000bc
:1039fc00110898000000eb004f0478000080fa00da
:103a0c00000006000800fa00200798003107980013
:103a1c008000eb002e00900095fe0700000f780050
:103a2c001e007800e00f50002b003a000000eb0065
:103a3c00100798002e0090008008900070009000f5
:103a4c002e019000120278000001be0004007800e4
:103a5c004dfa0700000f78001e007800e00f5000b0
:103a6c001c003a002e0090001008900010407800c6
:103a7c00fb4f4000050032002e0090001008900013
:103a8c0010407800e04f500008003a001e009000f3
:103a9c000000e800100798009e0090003e00900087
:103aac00808f500003003a000b0037000000eb0041
:103abc0010079800110020002e009000f9fe07005e
:103acc00000f78001e007800e00f5000d9ff320084
:103adc0001003700000000001e007800e40f5000c9
:103aec0002003a0070002000000f78001e007800e1
:103afc000080fa00000006000800fa002007980079
:103b0c00310798003e0090007b0040001040780088
:103b1c000080fb00c800dd003e0090007a004000f1
:103b2c00104078000080fb00008070000100200035
:103b3c00008fbe002e00900010407800e34f500024
:103b4c000f003a003e0090007500400010407800d5
:103b5c000080fb00c800dd003e00900074004000b7
:103b6c00104078000080fb000080700001002000f5
:103b7c00c000dd00000020001e1f70001e977000aa
:103b8c001e00be000080fa00000006000600fa00cd
:103b9c00000f780012079800230798001e00780089
:103bac00fa0040001e009000004078008048780029
:103bbc001e007800fb0040001e0090004800de0054
:103bcc0000407800804878001e00780074014000a6
:103bdc001e009000ae0090004008de0001002000a6
:103bec0000407800004978001e0078007501400004
:103bfc001e009000ae0090004008de000100200086
:103c0c00000078004800de00004078000049780091
:103c1c000080fa00000006000c00fa004007980033
:103c2c00510798005e009000104078008080fb00e7
:103c3c00f0fb2f00008060000000e9006d00b9006f
:103c4c0000007800000f78000000eb0010079800cf
:103c5c001000200020079800810129001e00900010
:103c6c0000804000104078000080fb000000e8005d
:103c7c00de00900000804000104078000080fb00c7
:103c8c00c800dd00820129001e00900000004100e8
:103c9c00104078000080fb005e01900000004100a5
:103cac00104078000080fb00008070003007980006
:103cbc002e009000e00f5000120032003e009000e9
:103ccc00fb1f0700200798001e007800ff0f500014
:103cdc000a003e001e00780000004000ce0090005c
:103cec0000804000100078001e0fe800f01f070055
:103cfc00ae009000810f5000070032000000eb0076
:103d0c001f0037003e009000e10f4000020032001f
:103d1c000000eb001a0037001e0090000000e800c5
:103d2c00100798001e009000ec0f5000caff3600e0
:103d3c005e009000104078008080fb0000042000a2
:103d4c0000806000e00f50000c0032002e0090004c
:103d5c00e00f5000090032001e0078000000400007
:103d6c00ce0090000080400010007800e00f500062
:103d7c00020032000000eb000100370010002000b0
:103d8c000080fa00000006000c00fa0040079800c2
:103d9c00510798005e009000104078008080fb0076
:103dac00f0032000008060000000e9006d00b90005
:103dbc0000007800000f78000000eb00100798005e
:103dcc001000200020079800810129001e0090009f
:103ddc0000804000104078000080fb000000e800ec
:103dec00de00900000804000104078000080fb0056
:103dfc00c800dd00820129001e0090000000410077
:103e0c00104078000080fb005e0190000000410033
:103e1c00104078000080fb00008070003007980094
:103e2c002e009000e00f50000f0032001e007800b2
:103e3c00ff0f5000020036000000eb002800370096
:103e4c001e00780000004000ce0090000080400072
:103e5c00be00900021079800ae0090000108780089
:103e6c001e0fe800050037003e009000e10f4000f7
:103e7c00020032000000eb00190037001e00900019
:103e8c000000e800100798001e009000ec0f500096
:103e9c00cdff36005e009000104078008080fb0063
:103eac000004200000806000e00f50000b00320086
:103ebc001e007800ff0f5000020036000000eb00df
:103ecc00070037001e00780000004000ce00900074
:103edc00008040008000eb000108780010002000fa
:103eec000080fa00000006000c00fa003007980071
:103efc0041079800224f9800334f98004e009000d5
:103f0c006d004000be489000014878004e009000c3
:103f1c00eb004000f0c0b300804878004e009000e9
:103f2c00ec0040000040eb00804878004e00900010
:103f3c00fa0040000040eb00804878004e009000f2
:103f4c00fb0040000040eb00804878002e489000b9
:103f5c000080fb000000e9006d00b9000000780053
:103f6c00000f78000000eb00200798000000eb0029
:103f7c00100798002e009000e10f4000070032005f
:103f8c001e00780000004000be0090000080400041
:103f9c0090007800210798001e0fe800810129008d
:103fac001e00900000804000104078000080fb0054
:103fbc00ce009000808040002e00900000407800e1
:103fcc0080487800810129001e009000008040008c
:103fdc00104078000080fb000000e800ce0090004c
:103fec00808040002e0090004800de0000407800e9
:103ffc00804878002e009000e00f500002003a003c
:10400c000080eb00200798001e0090000000e800e4
:10401c00100798001e009000ec0f5000d5ff3600e2
:10402c002e009000e10f4000070032001e007800c7
:10403c0000004000be00900000804000100078009e
:10404c00e00f500004003a00ae48900000c4b300ea
:10405c0000c07000204f98004e009000ae489000b9
:10406c00014878000080fa00000006001600fa00f3
:10407c0070079800010f9800120f9800230f9800fa
:10408c00b20020008e0890007e00900008f8070017
:10409c002e089000e50f50000d0036002e08900001
:1040ac008000d3001e0890001000780000804000b3
:1040bc00200f98001e0890000080e800100f980058
:1040cc001e08900010007800e00f5000f3ff3a003b
:1040dc0070002000100798002e0890000040780017
:1040ec006f40600001c3b300014f400090c3b300a8
:1040fc009e40780080cf5000020036001e407800b1
:10410c00674f4000e60047001e0090000080400012
:10411c001e4878001e0090000000e900100798006f
:10412c002e0890004400de00200f98002e0890000e
:10413c00e00f5000e8ff3a00e60047001e00900038
:10414c0080804000e0c7b300804878000000eb009e
:10415c0020079800030037002e0090000000e800b4
:10416c0020079800ae0090001e009000808f500039
:10417c0007003100fe0090002e00900000804000ef
:10418c009040780000c2b30080cf5000f2ff3a009c
:10419c00fe0090002e009000808040001e009000d9
:1041ac00e70f500008003e00660147001e0090001b
:1041bc0000004100104078001e0190000201e80050
:1041cc00120798000100370000c2b3008048780045
:1041dc002e0090000000e800200798002e009000b0
:1041ec00e70f5000eaff36000080fa0000000600de
:1041fc000600fa00200798000040eb00004f780002
:10420c00b0002000100798001e40780071002000bc
:10421c008100dd000080fb000000d10080c0700038
:10422c002e0090001040780000cf40002e0090002f
:10423c000000e800200798001e0090000000e90034
:10424c00100798001e009000e00f5000eeff3a009f
:10425c001e4078000080fa00000006000c00fa00f6
:10426c00500798008000eb005e00900080fc070077
:10427c00000f78001e007800e00f500002003200a2
:10428c001e0078008b00370000c0eb004047980000
:10429c004e409000304798005e00900080089000df
:1042ac00700090005e019000120278000001be00c8
:1042bc000400780034f80700000f78001e00780026
:1042cc00e00f500075003a005e00900090089000de
:1042dc00310798003e0090009040780021479800ec
:1042ec002e409000e04f500003003a0040002000a8
:1042fc00000f78006e0037003e0090006b0040000d
:10430c0010407800f043b200004f98002e4090000f
:10431c00fb4f4000080032000e4890000080fb006c
:10432c0068006000e00f5000060032000e4890005c
:10433c00ef4f50000300320000c0eb0030479800f4
:10434c004e0037000e489000ef4f50002e003a0000
:10435c005e00900030089000e00f500047003200e3
:10436c002e4090008080fb00000420000080600044
:10437c00e00f50000e0032003e0090006d00400037
:10438c009040780041479800ae409000f0cbb300cd
:10439c0000c06000204798002e40900030479800e5
:1043ac005e009000a00090005e0090004108980014
:1043bc00ae4090003e40900080cf50000f003a007d
:1043cc003e0090006d004000904078004e40900000
:1043dc0080cf500009003a005e0090003008900039
:1043ec00be0090000cfe0700e00f500003003200ee
:1043fc003e4090000040e9000100370000c0eb0097
:10440c00304798001d0037003e409000e04f5000b0
:10441c0005003a003e00900075ff0700ce4090006a
:10442c00814f50001f00320000c0eb003047980055
:10443c005e0090008080eb00410898005e009000c8
:10444c00200890006b004000104078000080fb00ba
:10445c0061006000e00f500008003a005e00900020
:10446c0020089000b2002000800078003e009000f0
:10447c0046f70700e00f50000c0032008000eb0004
:10448c005e00900087fc0700000f78001e0078008b
:10449c00e00f500080ff32000500370000000000e4
:1044ac00030037000000000001003700000000008e
:1044bc001e0078000080fa00000006001a00fa00c6
:1044cc00400f98004e089000a0089000310798000b
:1044dc004e08900030099000420798006b0047008e
:1044ec00c2002000be009000f1f607006e50900054
:1044fc000080fb006100600000407800e04f50003d
:10450c00310032003e009000eb0040000040eb0018
:10451c00804878004e0890008000eb00310898002d
:10452c0010002000100798000f0037006b004700a8
:10453c009e0190004e019000800078003e0090009b
:10454c00cafe07004e08900044ff0700000f7800d9
:10455c001e007800e00f500008003a001e0090008a
:10456c000000e800100798009e0090003006200024
:10457c00808f5000edff3600010037000000000076
:10458c009e00900040062000808f500002003a00f0
:10459c0070002000950037001e007800e40f5000da
:1045ac00020032001e007800900037003e009000a0
:1045bc00eb0040006e509000804878004e08900050
:1045cc00ce009000310898006e5090000080fb00e7
:1045dc0062006000e00f5000150032000000eb009c
:1045ec0010079800030037001e0090000000e80040
:1045fc00100798001e00900000004000ce009000b4
:10460c000080400010007800e00f5000f6ff3a00e8
:10461c001e009000f9004000d0002000000178003e
:10462c00110009008280d800200798000200370092
:10463c001000200020079800ae0090004e0890005b
:10464c00f0fc0700000f78001e007800e00f50000f
:10465c003e003a002e0090000000e9002007980070
:10466c002e009000e00f5000380032004e089000f1
:10467c00a00090002e009000008050008000780078
:10468c004e0890007afb0700000f78001e0078009f
:10469c00e00f50002d003a004e08900020089000ca
:1046ac00d3fe0700204f98004e0890008008900021
:1046bc00700090004e099000120278000001be00bc
:1046cc000400780030f70700000f78001e00780017
:1046dc00e00f50001c003a002e00900000407800c3
:1046ec00ce089000910890004e099000320a90007c
:1046fc00ae4990000041780004007800fafd0700f4
:10470c004e0890009000780010c0b300c040980094
:10471c008000eb004e089000e2fb0700000f7800d1
:10472c001e007800e00f500008003a002e009000a8
:10473c000000e900200798002e009000e00f5000c8
:10474c00d9ff3a0001003700000000001e0078007d
:10475c00e00f500024003a004e08900080089000b2
:10476c00700090004e099000120278000001be000b
:10477c000400780004f70700000f78001e00780092
:10478c00e00f500018003a004e08900010089000fe
:10479c00020220008000eb0063f607004e08900038
:1047ac00a00890004e08900010089000b200200065
:1047bc003ff607004e08900010089000ec004000f7
:1047cc004e089000200890006b00400010407800cc
:1047dc0078406000804878004e0890009000780087
:1047ec0010c0b300c04098001e0078000080fa0092
:1047fc00000006001400fa00000f9800110f98003a
:10480c001e089000900078006107980003003700a4
:10481c006e0090000000e800600798006e009000a9
:10482c0090407800f0c2b30080cf5000f8ff320007
:10483c006e00900090407800c0c5b30080cf50004f
:10484c00f3ff32000e089000b0089000710798003a
:10485c000000eb00500798005e00900040079800a5
:10486c00ee0090004e009000008040001040780058
:10487c000000fb00100798004e0090000000e800bc
:10488c00400798001e009000ff0f500030003600cb
:10489c009e009000f0022000808f50002c0032000f
:1048ac009e009000c0052000808f50002800320030
:1048bc005e009000ff0f50000200360060002000e8
:1048cc004a0137009e009000f00f2000008060002d
:1048dc0010079800110020001e009000c01c07005b
:1048ec00100798001e009000e00f500002003a00e4
:1048fc00600020003d0137009e009000f007200072
:10490c00808f500008003e001e0090008000780050
:10491c005002290049f60700e00f50000200320057
:10492c0060002000310137005e0090000000400064
:10493c00fe009000008040009e009000010878006e
:10494c005e0090000000e80050079800c4ff37009c
:10495c00ee0090004e009000808040001e089000f9
:10496c00010878001e009000ff0f500002003e006e
:10497c0040c0b300010037000040eb001047980026
:10498c00120037005e0090000000e90000004000bb
:10499c00fe00900000804000900078001107980005
:1049ac009e00900000022000808f50000400320016
:1049bc009e009000e0022000808f500007003a001b
:1049cc005e0090000000e900500798005e00900027
:1049dc00e00f5000ebff3a00010037000000000030
:1049ec005e009000e00f500002003a0060002000d2
:1049fc00fe0037005e00900000004000fe009000ba
:104a0c00008040008000eb00010878000e08900048
:104a1c0020089000b200200001022000c2f507001f
:104a2c000000eb0040079800030037004e00900098
:104a3c000000e800400798004e0090000000400085
:104a4c00fe009000008040009000780000022000e2
:104a5c00808f5000f5ff32004e00900000004000a7
:104a6c00fe0090000080400090007800e0022000e2
:104a7c00808f5000edff32004e009000e00f500090
:104a8c00070032001e4090003040b30010479800e1
:104a9c00030037005e0090000000e900500798000a
:104aac005e009000e00f5000090032005e009000a4
:104abc000000e90000004000fe0090000080400073
:104acc0090007800e0022000808f5000f1ff3a0047
:104adc000000eb00200798000040eb00004f78002e
:104aec0080002000300798004e009000000040002d
:104afc00fe009000008040009000780011079800a4
:104b0c004e0090000000e800400798001e00900046
:104b1c00e00f50007a0032009e009000000220004e
:104b2c00808f5000080032009e009000e0022000b0
:104b3c00808f500008003a00ce0090005e0090007c
:104b4c00808f5000040032001e4090003040b300b3
:104b5c001047980069003700ae0090003e009000ae
:104b6c00808f500004003100ce0090005e00900059
:104b7c00808f50001d003a003e009000eb0f50005b
:104b8c0004003a001e4090003040b30010479800db
:104b9c005e003700ce0090005e009000808f5000c9
:104bac00030032001e4090003040b30010479800c4
:104bbc00ce0090005e009000808f500052003e00ae
:104bcc005e009000400798008000200020079800ad
:104bdc00b0002000300798001e4078002100200013
:104bec000100dd00004f7800440037009e0090006b
:104bfc00f0072000808f5000100036008000eb0082
:104c0c001e009000f61b0700100798001e00900075
:104c1c00e00f5000060032001e0090000008b100aa
:104c2c0081f92800614078000080fb001007980093
:104c3c001e4090000014a000104798001e00900029
:104c4c00e00f5000060032001e009000800078003b
:104c5c00e002290079f50700e00f50000600320051
:104c6c00f0052000100798001e4090003040b30063
:104c7c0010479800160037009e009000000420009a
:104c8c00808f5000060036009e009000a00520008a
:104c9c00808f500002003e001e14a0000c00370054
:104cac009e00900000062000808f50000800360007
:104cbc009e009000a0072000808f500004003e0052
:104ccc001e04a0001e0090000002b1001007980006
:104cdc000e089000a00890002e00900080804000ec
:104cec001e00900000407800804878002e00900054
:104cfc000000e800200798007bff37007aff3700a0
:104d0c000000000001003700000000000e089000b9
:104d1c002008900010407800fb4f400004003a003f
:104d2c000e089000a008900050c0b3008048780096
:104d3c003e009000e80f500004003a001e4078003e
:104d4c00210020000100dd00004f78009e4078001b
:104d5c000180fb006c006000ec0f5000050032007d
:104d6c009e4078000180fb0063006000e30f500060
:104d7c0003003a001e4090000014a0001047980059
:104d8c001e4090000080fb0062006000e00f5000ad
:104d9c0010003a009e4078000180fb006300600028
:104dac00e10f500003003a001e4090000044a000a8
:104dbc00104798009e4078000180fb006c0060005a
:104dcc00e40f500003003a001e4090000034a00095
:104ddc00104798000e089000200890006b004000cf
:104dec009e409000014878000000eb000080fa0023
:104dfc00000006000400fa00100798000080eb0089
:104e0c00000f78001e00900010007800e00f50009a
:104e1c001d0032001e009000100078001040780039
:104e2c000000fb0001fd2f00010f40001e00780068
:104e3c00e80f500012003e001e0090001000780099
:104e4c000000e80090407800a0c3b30080cf500071
:104e5c000b003a001e009000100078008080e800e3
:104e6c001e009000010878001e007800e00f500032
:104e7c00050034000080eb00000f780002003700c2
:104e8c000000eb00000f78001e0078000080fa0094
:104e9c00000006000a00fa0030079800410798004d
:104eac004e00900090407800f0c2b30080cf5000cc
:104ebc00050032004e00900090407800c0c5b30051
:104ecc0080cf500003003a004e0090000000e80034
:104edc00400798003e0190006000b8003001980037
:104eec00410198004e00900010407800ff4f500098
:104efc0008003e008000eb003e0090005cf90700cb
:104f0c00000f78003e0090008000eb001108980024
:104f1c003f00370068004700800078003e0090009a
:104f2c0034fe0700000f78001e007800e00f5000e0
:104f3c0030003a003e009000c8fc0700000f7800db
:104f4c003e009000200890006b00400090407800dc
:104f5c00214798001e007800e00f50000b00320033
:104f6c001e007800e40f500024003a002e40900000
:104f7c000080fb0064006000e00f500021003a004c
:104f8c0050002000000f7800210037002e409000c8
:104f9c000080fb0064006000e00f50001b003a0032
:104fac003e00900090089000210798002e00900081
:104fbc006b004000104078000080fb007000600027
:104fcc00e00f500003003a0050002000000f780062
:104fdc000f0037003e00900010007800ae009000eb
:104fec00c5fa07003e01900030019800410198007d
:104ffc00c8ff37000000000005003700000000006b
:10500c000300370000000000010037000000000022
:10501c001e0078000080fa00000006000600fa006e
:10502c00000f780012079800230798009e00780064
:10503c000040eb00c04098001e0178000080eb009f
:10504c008080eb0050119800611198001e019000b7
:10505c00ae0190001e007800cbf40700e00f50006a
:10506c000200320030c0b3007a003700d122200099
:10507c001e804000104078000080fb00c800dd005e
:10508c00c22220001e004100104078000080fb006e
:10509c008080700050a52a00808f500002003200e2
:1050ac0020c0b3006b003700710620001e8040004a
:1050bc00104078000080fb0001002000c801dd00da
:1050cc0002002000610620001e8040001040780085
:1050dc000080fb0001002000c000dd00000020006b
:1050ec000001710081817100510620001e8040007a
:1050fc00104078000080fb004800dd00010020001b
:10510c000001710081817100410620001e80400069
:10511c00104078000080fb000100200000017100ad
:10512c0081817100f0ff2f00f10f20000202780046
:10513c00030178008001780001007800030262000e
:10514c000000610001002000c000dd000000200014
:10515c000001be006120b800000171008181710066
:10516c006014240041052000800f5100818f5900ec
:10517c0002003a000040eb003600370032082000f5
:10518c001e004100104078000080fb000100200050
:10519c00c801dd0002002000210820001e80400014
:1051ac00104078000080fb0001002000c000dd00f2
:1051bc0000002000000171008181710011082000a5
:1051cc001e804000104078000080fb004800dd008d
:1051dc000100200000017100818171000108200094
:1051ec001e804000104078000080fb000100200071
:1051fc000001710081817100f0ff2f00f10f200080
:10520c000202780003017800800178000100780028
:10521c00030262000000610001002000c000dd00fc
:10522c00000020000001be006120b80000017100e8
:10523c00818171006014240041052000800f510011
:10524c00818f590002003a000040eb00010037004a
:10525c0010c0b3000080fa00000006003c00fa0009
:10526c00301f9800411f9800227f98003e18900034
:10527c008000eb00010878004e189000ddfe07005e
:10528c00200f98002e089000e00f500002003d0007
:10529c00b0002000370337002e089000800040003b
:1052ac0020fe20000080400090007800310f980014
:1052bc003e089000e00f500002003a00c0002000b1
:1052cc002c0337003e1890003e099000020878002d
:1052dc003e08900010407800e04f5000150032005e
:1052ec003e08900010409000d70d0700005f98001a
:1052fc000e5890000080fb0061006000e00f500031
:10530c000c003a002e789000e04f5000070032005d
:10531c000e5890000080fb0064006000e00f50000d
:10532c0002003200a0002000120337000000eb0046
:10533c0010033700be0890000040eb008048780056
:10534c002e08900000407800be0890009040980015
:10535c003e089000104090000f0d0700005f980071
:10536c000e5890000080fb00610060000040780047
:10537c00e04f50000200320030002000fd023700e8
:10538c002e789000e04f5000070032000e5890002d
:10539c000080fb0064006000e00f5000020032004f
:1053ac00a0002000f30237006000b800100798003e
:1053bc00210798001e019000ae0190003e0890005d
:1053cc0016ff0700004f78001e407800e14f500098
:1053dc0061003a000000eb00100f98003600370017
:1053ec003e089000e1022000808040001e089000e2
:1053fc004400dd00e01bb00000804000500f98001e
:10540c005e0890006400400010407800e04f5000af
:10541c00200032005e0890006b00400010407800c5
:10542c000080fb0001002000c801dd00020020000c
:10543c005e0890006a004000104078000080fb007d
:10544c0001002000c000dd00000020000001710000
:10545c00818171005e089000690040001040780066
:10546c000080fb004800dd000100200000017100fd
:10547c00818171005e089000680040001040780047
:10548c000080fb0001002000000071008180710091
:10549c00010037006000b8001e0990004211dd00c9
:1054ac00020147006202b0000089be001e08900095
:1054bc000000e800100f98001e089000e30f500049
:1054cc00c7ff36000000eb00100f98001e0890007c
:1054dc00e00f5000030032001e0890000000e900ad
:1054ec00100f98001e0890004200dd0061022000a1
:1054fc008e804000008040001001be001207980012
:10550c00230798001e009000ae009000e00f5000a2
:10551c00e08f5800050032001e019000ae01900093
:10552c003e089000bdfe07000100370020c0b3000c
:10553c00004f78001e407800e04f5000060032000b
:10554c001e0890000000e800100f98001e08900044
:10555c00e30f5000e3ff36001e407800e34f50008d
:10556c0002003a0010002000820237001e40780032
:10557c00e04f500002003200d00020007d023700c6
:10558c003e089000a003b000104078000080fb00a3
:10559c00c800dd003e0890009003b0001040780079
:1055ac000080fb008080700000202000808f500065
:1055bc0002003200d00020006e0237003e0890003e
:1055cc005004b000104078000080fb00c800dd00e3
:1055dc003e0890004004b000104078000080fb00b2
:1055ec0000807000010020003007980041079800ef
:1055fc003e009000ce009000e00f5000e08f58006d
:10560c0021003a003e0890005005b0001040780090
:10561c000080fb0001002000c801dd00020020001a
:10562c003e0890004005b000104078000080fb0060
:10563c0001002000c000dd0000002000000171000e
:10564c00818171003e0890003005b0001040780058
:10565c000080fb004800dd0001002000000171000b
:10566c00818171003e0890002005b0001040780048
:10567c000080fb000100200000007100818071009f
:10568c0030079800410798003e0890003e019000ba
:10569c00ce01900032089800430898003e08900014
:1056ac0060789000be089000b04098003e089000d2
:1056bc0030409000e14f5000060032003e08900050
:1056cc0030409000e24f500002003200d000200029
:1056dc00280237003e089000304090000080fb000c
:1056ec00010020004e0190000091b90002017800e9
:1056fc00be019000019ab9008401780003014100b9
:10570c00be0190000018b800010141008200780031
:10571c00300798004107980030079800410798001f
:10572c003e08900030789000be089000a040980091
:10573c003e08900020409000e04f50000a003200dc
:10574c003e089000204090008080fb003e089000b6
:10575c00204090000080fb000000e9000080600009
:10576c00e00f500002003200d00020000102370090
:10577c003e0890000004b000104078000080fb0050
:10578c00c800dd003e089000f003b0001040780027
:10579c000080fb00808070003e0890004100980063
:1057ac003e089000400090006f006000e00f500039
:1057bc0002003200d0002000ee0137003e089000bd
:1057cc002004b000104078000080fb00c800dd0011
:1057dc003e0890001004b000104078000080fb00e0
:1057ec0000807000010020005007980061079800ad
:1057fc005e009000ee009000e00f5000e08f58002b
:10580c0021003a003e0890001005b00010407800ce
:10581c000080fb0001002000c801dd000200200018
:10582c003e0890000005b000104078000080fb009e
:10583c0001002000c000dd0000002000000171000c
:10584c00818171003e089000f004b0001040780097
:10585c000080fb004800dd00010020000001710009
:10586c00818171003e089000e004b0001040780087
:10587c000080fb000100200000007100818071009d
:10588c0050079800610798003e089000d003b000c4
:10589c00104078000080fb00c800dd003e0890003e
:1058ac00c003b000104078000080fb000080700046
:1058bc00600f98006e089000e00f500002003a0054
:1058cc00d0002000ab0137006e0890006101b800d9
:1058dc003e009000ce009000020140008381480001
:1058ec003e089000400090004400de0001002000c3
:1058fc000200400083804800700f98000117980048
:10590c005e019000ee0190007e0890008e109000d9
:10591c00800f5100818f590002003100d00020000f
:10592c00940137005e019000ee0190007e0890001b
:10593c008e10900000025100818259003e089000a8
:10594c00204090000080fb00010020000001be0000
:10595c000400be007ded0700101798002117980079
:10596c001e109000ae109000e00f5000e08f580019
:10597c0002003a00d00020007e01370010c0b300b6
:10598c00004f78001e119000ae11900050ff2000c7
:10599c0001002000800f5100818f59000200360059
:1059ac0020c0b300004f78001e119000ae11900083
:1059bc0050ff2f0001002000800f5100818f5900f3
:1059cc000200360030c0b300004f78001e1090006b
:1059dc00ae10900062004000e08048003e0990004c
:1059ec0010099800210998003e0890001e019000b3
:1059fc00ae01900052089800630898006e08900061
:105a0c006101b8001e009000ae0090000200400042
:105a1c00838048003e09900070099800011198009d
:105a2c001e019000ae0190007e0890008e10900038
:105a3c0002004000838048003e099000301198001d
:105a4c00411198001e407800e34f500032003a009c
:105a5c003e08900040009000e00f50000200320021
:105a6c00d0002000430137003e089000d005b00064
:105a7c00104078000080fb0001002000c801dd0010
:105a8c00020020003e089000c005b00010407800d5
:105a9c000080fb0001002000c000dd0000002000a1
:105aac0000017100818171003e089000b005b000ca
